{
  "contractName": "CourseMarketplace",
  "abi": [
    {
      "inputs": [],
      "stateMutability": "nonpayable",
      "type": "constructor"
    },
    {
      "inputs": [],
      "name": "CourseHasOwner",
      "type": "error"
    },
    {
      "inputs": [],
      "name": "CourseIsNotCreated",
      "type": "error"
    },
    {
      "inputs": [],
      "name": "InvalidState",
      "type": "error"
    },
    {
      "inputs": [],
      "name": "OnlyOwner",
      "type": "error"
    },
    {
      "inputs": [],
      "name": "SenderIsNotCourseOwner",
      "type": "error"
    },
    {
      "inputs": [],
      "name": "isStopped",
      "outputs": [
        {
          "internalType": "bool",
          "name": "",
          "type": "bool"
        }
      ],
      "stateMutability": "view",
      "type": "function",
      "constant": true
    },
    {
      "stateMutability": "payable",
      "type": "receive",
      "payable": true
    },
    {
      "inputs": [
        {
          "internalType": "uint256",
          "name": "amount",
          "type": "uint256"
        }
      ],
      "name": "withdraw",
      "outputs": [],
      "stateMutability": "nonpayable",
      "type": "function"
    },
    {
      "inputs": [],
      "name": "emergencyWithdraw",
      "outputs": [],
      "stateMutability": "nonpayable",
      "type": "function"
    },
    {
      "inputs": [],
      "name": "selfDestruct",
      "outputs": [],
      "stateMutability": "nonpayable",
      "type": "function"
    },
    {
      "inputs": [],
      "name": "stopContract",
      "outputs": [],
      "stateMutability": "nonpayable",
      "type": "function"
    },
    {
      "inputs": [],
      "name": "resumeContract",
      "outputs": [],
      "stateMutability": "nonpayable",
      "type": "function"
    },
    {
      "inputs": [
        {
          "internalType": "bytes16",
          "name": "courseId",
          "type": "bytes16"
        },
        {
          "internalType": "bytes32",
          "name": "proof",
          "type": "bytes32"
        }
      ],
      "name": "purchaseCourse",
      "outputs": [],
      "stateMutability": "payable",
      "type": "function",
      "payable": true
    },
    {
      "inputs": [
        {
          "internalType": "bytes32",
          "name": "courseHash",
          "type": "bytes32"
        }
      ],
      "name": "repurchaseCourse",
      "outputs": [],
      "stateMutability": "payable",
      "type": "function",
      "payable": true
    },
    {
      "inputs": [
        {
          "internalType": "bytes32",
          "name": "courseHash",
          "type": "bytes32"
        }
      ],
      "name": "activateCourse",
      "outputs": [],
      "stateMutability": "nonpayable",
      "type": "function"
    },
    {
      "inputs": [
        {
          "internalType": "bytes32",
          "name": "courseHash",
          "type": "bytes32"
        }
      ],
      "name": "deactivateCourse",
      "outputs": [],
      "stateMutability": "nonpayable",
      "type": "function"
    },
    {
      "inputs": [
        {
          "internalType": "address",
          "name": "newOwner",
          "type": "address"
        }
      ],
      "name": "transferOwnership",
      "outputs": [],
      "stateMutability": "nonpayable",
      "type": "function"
    },
    {
      "inputs": [],
      "name": "getCourseCount",
      "outputs": [
        {
          "internalType": "uint256",
          "name": "",
          "type": "uint256"
        }
      ],
      "stateMutability": "view",
      "type": "function",
      "constant": true
    },
    {
      "inputs": [
        {
          "internalType": "uint256",
          "name": "index",
          "type": "uint256"
        }
      ],
      "name": "getCourseHashAtIndex",
      "outputs": [
        {
          "internalType": "bytes32",
          "name": "",
          "type": "bytes32"
        }
      ],
      "stateMutability": "view",
      "type": "function",
      "constant": true
    },
    {
      "inputs": [
        {
          "internalType": "bytes32",
          "name": "courseHash",
          "type": "bytes32"
        }
      ],
      "name": "getCourseByHash",
      "outputs": [
        {
          "components": [
            {
              "internalType": "uint256",
              "name": "id",
              "type": "uint256"
            },
            {
              "internalType": "uint256",
              "name": "price",
              "type": "uint256"
            },
            {
              "internalType": "bytes32",
              "name": "proof",
              "type": "bytes32"
            },
            {
              "internalType": "address",
              "name": "owner",
              "type": "address"
            },
            {
              "internalType": "enum CourseMarketplace.State",
              "name": "state",
              "type": "uint8"
            }
          ],
          "internalType": "struct CourseMarketplace.Course",
          "name": "",
          "type": "tuple"
        }
      ],
      "stateMutability": "view",
      "type": "function",
      "constant": true
    },
    {
      "inputs": [],
      "name": "getContractOwner",
      "outputs": [
        {
          "internalType": "address",
          "name": "",
          "type": "address"
        }
      ],
      "stateMutability": "view",
      "type": "function",
      "constant": true
    }
  ],
  "bytecode": "0x608060405260008060006101000a81548160ff02191690831515021790555034801561002a57600080fd5b5061003a3361003f60201b60201c565b610083565b80600460006101000a81548173ffffffffffffffffffffffffffffffffffffffff021916908373ffffffffffffffffffffffffffffffffffffffff16021790555050565b6117db806100926000396000f3fe6080604052600436106100ec5760003560e01c80636d11290b1161008a578063c4bc5da511610059578063c4bc5da5146102b8578063d76821cb146102cf578063db2e21bc146102eb578063f2fde38b14610302576100f3565b80636d11290b14610210578063935d7e6d1461024d57806396cfda06146102765780639cb8a26a146102a1576100f3565b80633f683b6a116100c65780633f683b6a14610161578063442890d51461018c5780636136e1eb146101b757806362e4e6ac146101d3576100f3565b806312253a6c146100f85780632e1a7d4d1461010f5780633926257214610138576100f3565b366100f357005b600080fd5b34801561010457600080fd5b5061010d61032b565b005b34801561011b57600080fd5b5061013660048036038101906101319190611303565b6103b3565b005b34801561014457600080fd5b5061015f600480360381019061015a91906112da565b6104f1565b005b34801561016d57600080fd5b506101766106dd565b60405161018391906114dc565b60405180910390f35b34801561019857600080fd5b506101a16106ee565b6040516101ae91906114c1565b60405180910390f35b6101d160048036038101906101cc91906112da565b610718565b005b3480156101df57600080fd5b506101fa60048036038101906101f591906112da565b6108df565b6040516102079190611532565b60405180910390f35b34801561021c57600080fd5b5061023760048036038101906102329190611303565b610a07565b60405161024491906114f7565b60405180910390f35b34801561025957600080fd5b50610274600480360381019061026f91906112da565b610a24565b005b34801561028257600080fd5b5061028b610b5f565b604051610298919061154d565b60405180910390f35b3480156102ad57600080fd5b506102b6610b69565b005b3480156102c457600080fd5b506102cd610c27565b005b6102e960048036038101906102e4919061129e565b610caf565b005b3480156102f757600080fd5b50610300610eb4565b005b34801561030e57600080fd5b5061032960048036038101906103249190611275565b611008565b005b6103336106ee565b73ffffffffffffffffffffffffffffffffffffffff163373ffffffffffffffffffffffffffffffffffffffff1614610397576040517f5fc483c500000000000000000000000000000000000000000000000000000000815260040160405180910390fd5b60016000806101000a81548160ff021916908315150217905550565b6103bb6106ee565b73ffffffffffffffffffffffffffffffffffffffff163373ffffffffffffffffffffffffffffffffffffffff161461041f576040517f5fc483c500000000000000000000000000000000000000000000000000000000815260040160405180910390fd5b6000600460009054906101000a900473ffffffffffffffffffffffffffffffffffffffff1673ffffffffffffffffffffffffffffffffffffffff1682604051610467906114ac565b60006040518083038185875af1925050503d80600081146104a4576040519150601f19603f3d011682016040523d82523d6000602084013e6104a9565b606091505b50509050806104ed576040517f08c379a00000000000000000000000000000000000000000000000000000000081526004016104e490611512565b60405180910390fd5b5050565b6104f96106ee565b73ffffffffffffffffffffffffffffffffffffffff163373ffffffffffffffffffffffffffffffffffffffff161461055d576040517f5fc483c500000000000000000000000000000000000000000000000000000000815260040160405180910390fd5b60008054906101000a900460ff161561057557600080fd5b61057e81611080565b6105b4576040517f4db0c48300000000000000000000000000000000000000000000000000000000815260040160405180910390fd5b600060016000838152602001908152602001600020905060006002811115610605577f4e487b7100000000000000000000000000000000000000000000000000000000600052602160045260246000fd5b8160030160149054906101000a900460ff16600281111561064f577f4e487b7100000000000000000000000000000000000000000000000000000000600052602160045260246000fd5b14610686576040517fbaf3f0f700000000000000000000000000000000000000000000000000000000815260040160405180910390fd5b60018160030160146101000a81548160ff021916908360028111156106d4577f4e487b7100000000000000000000000000000000000000000000000000000000600052602160045260246000fd5b02179055505050565b60008054906101000a900460ff1681565b6000600460009054906101000a900473ffffffffffffffffffffffffffffffffffffffff16905090565b60008054906101000a900460ff161561073057600080fd5b61073981611080565b61076f576040517f4db0c48300000000000000000000000000000000000000000000000000000000815260040160405180910390fd5b610778816110ef565b6107ae576040517fcce31cc400000000000000000000000000000000000000000000000000000000815260040160405180910390fd5b60006001600083815260200190815260200160002090506002808111156107fe577f4e487b7100000000000000000000000000000000000000000000000000000000600052602160045260246000fd5b8160030160149054906101000a900460ff166002811115610848577f4e487b7100000000000000000000000000000000000000000000000000000000600052602160045260246000fd5b1461087f576040517fbaf3f0f700000000000000000000000000000000000000000000000000000000815260040160405180910390fd5b60008160030160146101000a81548160ff021916908360028111156108cd577f4e487b7100000000000000000000000000000000000000000000000000000000600052602160045260246000fd5b02179055503481600101819055505050565b6108e76111a1565b600160008381526020019081526020016000206040518060a00160405290816000820154815260200160018201548152602001600282015481526020016003820160009054906101000a900473ffffffffffffffffffffffffffffffffffffffff1673ffffffffffffffffffffffffffffffffffffffff1673ffffffffffffffffffffffffffffffffffffffff1681526020016003820160149054906101000a900460ff1660028111156109c4577f4e487b7100000000000000000000000000000000000000000000000000000000600052602160045260246000fd5b60028111156109fc577f4e487b7100000000000000000000000000000000000000000000000000000000600052602160045260246000fd5b815250509050919050565b600060026000838152602001908152602001600020549050919050565b610a2c6106ee565b73ffffffffffffffffffffffffffffffffffffffff163373ffffffffffffffffffffffffffffffffffffffff1614610a90576040517f5fc483c500000000000000000000000000000000000000000000000000000000815260040160405180910390fd5b60008054906101000a900460ff1615610aa857600080fd5b610ab181611080565b610ae7576040517f4db0c48300000000000000000000000000000000000000000000000000000000815260040160405180910390fd5b600060016000838152602001908152602001600020905060028160030160146101000a81548160ff02191690836002811115610b4c577f4e487b7100000000000000000000000000000000000000000000000000000000600052602160045260246000fd5b0217905550600081600101819055505050565b6000600354905090565b610b716106ee565b73ffffffffffffffffffffffffffffffffffffffff163373ffffffffffffffffffffffffffffffffffffffff1614610bd5576040517f5fc483c500000000000000000000000000000000000000000000000000000000815260040160405180910390fd5b60008054906101000a900460ff16610bec57600080fd5b600460009054906101000a900473ffffffffffffffffffffffffffffffffffffffff1673ffffffffffffffffffffffffffffffffffffffff16ff5b610c2f6106ee565b73ffffffffffffffffffffffffffffffffffffffff163373ffffffffffffffffffffffffffffffffffffffff1614610c93576040517f5fc483c500000000000000000000000000000000000000000000000000000000815260040160405180910390fd5b60008060006101000a81548160ff021916908315150217905550565b60008054906101000a900460ff1615610cc757600080fd5b60008233604051602001610cdc929190611480565b604051602081830303815290604052805190602001209050610cfd816110ef565b15610d34576040517fb0fc2d9700000000000000000000000000000000000000000000000000000000815260040160405180910390fd5b600060036000815480929190610d4990611627565b9190505590508160026000838152602001908152602001600020819055506040518060a001604052808281526020013481526020018481526020013373ffffffffffffffffffffffffffffffffffffffff16815260200160006002811115610dda577f4e487b7100000000000000000000000000000000000000000000000000000000600052602160045260246000fd5b8152506001600084815260200190815260200160002060008201518160000155602082015181600101556040820151816002015560608201518160030160006101000a81548173ffffffffffffffffffffffffffffffffffffffff021916908373ffffffffffffffffffffffffffffffffffffffff16021790555060808201518160030160146101000a81548160ff02191690836002811115610ea6577f4e487b7100000000000000000000000000000000000000000000000000000000600052602160045260246000fd5b021790555090505050505050565b610ebc6106ee565b73ffffffffffffffffffffffffffffffffffffffff163373ffffffffffffffffffffffffffffffffffffffff1614610f20576040517f5fc483c500000000000000000000000000000000000000000000000000000000815260040160405180910390fd5b60008054906101000a900460ff16610f3757600080fd5b6000600460009054906101000a900473ffffffffffffffffffffffffffffffffffffffff1673ffffffffffffffffffffffffffffffffffffffff1647604051610f7f906114ac565b60006040518083038185875af1925050503d8060008114610fbc576040519150601f19603f3d011682016040523d82523d6000602084013e610fc1565b606091505b5050905080611005576040517f08c379a0000000000000000000000000000000000000000000000000000000008152600401610ffc90611512565b60405180910390fd5b50565b6110106106ee565b73ffffffffffffffffffffffffffffffffffffffff163373ffffffffffffffffffffffffffffffffffffffff1614611074576040517f5fc483c500000000000000000000000000000000000000000000000000000000815260040160405180910390fd5b61107d8161115d565b50565b60008073ffffffffffffffffffffffffffffffffffffffff166001600084815260200190815260200160002060030160009054906101000a900473ffffffffffffffffffffffffffffffffffffffff1673ffffffffffffffffffffffffffffffffffffffff1614159050919050565b60003373ffffffffffffffffffffffffffffffffffffffff166001600084815260200190815260200160002060030160009054906101000a900473ffffffffffffffffffffffffffffffffffffffff1673ffffffffffffffffffffffffffffffffffffffff16149050919050565b80600460006101000a81548173ffffffffffffffffffffffffffffffffffffffff021916908373ffffffffffffffffffffffffffffffffffffffff16021790555050565b6040518060a00160405280600081526020016000815260200160008019168152602001600073ffffffffffffffffffffffffffffffffffffffff1681526020016000600281111561121b577f4e487b7100000000000000000000000000000000000000000000000000000000600052602160045260246000fd5b81525090565b60008135905061123081611749565b92915050565b60008135905061124581611760565b92915050565b60008135905061125a81611777565b92915050565b60008135905061126f8161178e565b92915050565b60006020828403121561128757600080fd5b600061129584828501611221565b91505092915050565b600080604083850312156112b157600080fd5b60006112bf85828601611236565b92505060206112d08582860161124b565b9150509250929050565b6000602082840312156112ec57600080fd5b60006112fa8482850161124b565b91505092915050565b60006020828403121561131557600080fd5b600061132384828501611260565b91505092915050565b61133581611584565b82525050565b61134481611584565b82525050565b61135b61135682611584565b611670565b82525050565b61136a81611596565b82525050565b61138161137c826115a2565b611682565b82525050565b611390816115ce565b82525050565b61139f816115ce565b82525050565b6113ae81611615565b82525050565b60006113c1601083611573565b91506113cc82611709565b602082019050919050565b60006113e4600083611568565b91506113ef82611732565b600082019050919050565b60a0820160008201516114106000850182611462565b5060208201516114236020850182611462565b5060408201516114366040850182611387565b506060820151611449606085018261132c565b50608082015161145c60808501826113a5565b50505050565b61146b8161160b565b82525050565b61147a8161160b565b82525050565b600061148c8285611370565b60108201915061149c828461134a565b6014820191508190509392505050565b60006114b7826113d7565b9150819050919050565b60006020820190506114d6600083018461133b565b92915050565b60006020820190506114f16000830184611361565b92915050565b600060208201905061150c6000830184611396565b92915050565b6000602082019050818103600083015261152b816113b4565b9050919050565b600060a08201905061154760008301846113fa565b92915050565b60006020820190506115626000830184611471565b92915050565b600081905092915050565b600082825260208201905092915050565b600061158f826115eb565b9050919050565b60008115159050919050565b60007fffffffffffffffffffffffffffffffff0000000000000000000000000000000082169050919050565b6000819050919050565b60008190506115e682611735565b919050565b600073ffffffffffffffffffffffffffffffffffffffff82169050919050565b6000819050919050565b6000611620826115d8565b9050919050565b60006116328261160b565b91507fffffffffffffffffffffffffffffffffffffffffffffffffffffffffffffffff8214156116655761166461169e565b5b600182019050919050565b600061167b8261168c565b9050919050565b6000819050919050565b6000611697826116fc565b9050919050565b7f4e487b7100000000000000000000000000000000000000000000000000000000600052601160045260246000fd5b7f4e487b7100000000000000000000000000000000000000000000000000000000600052602160045260246000fd5b60008160601b9050919050565b7f5472616e73666572206661696c65642100000000000000000000000000000000600082015250565b50565b60038110611746576117456116cd565b5b50565b61175281611584565b811461175d57600080fd5b50565b611769816115a2565b811461177457600080fd5b50565b611780816115ce565b811461178b57600080fd5b50565b6117978161160b565b81146117a257600080fd5b5056fea2646970667358221220c0c7cc608d6305ae71f3cf087480be15a449cbfdc57af8f3e2012a126c4e288664736f6c63430008040033",
  "immutableReferences": {},
  "source": "// SPDX-License-Identifier: MIT\r\npragma solidity >=0.4.22 <0.9.0;\r\n \r\ncontract CourseMarketplace {\r\n \r\n    enum State {\r\n        Purchased,\r\n        Activated,\r\n        Deactivated\r\n    }\r\n \r\n    struct Course {\r\n        uint id; //32  0x00000000000000000000000000003130\r\n        uint price; //32  0x0000000000000000000000000000313000000000000000000000000000003130\r\n        bytes32 proof; //special constructed value by user on frontend 32\r\n        address owner; //20\r\n        State state; // 1\r\n    }\r\n\r\n    bool public isStopped = false;\r\n \r\n    mapping(bytes32 => Course) private ownedCourses; //mapping of courseHash to Course data\r\n \r\n    mapping(uint => bytes32) private ownedCourseHash; // mapping of courseId to courseHash\r\n \r\n    uint private totalOwnedCourses;\r\n \r\n    address payable private owner;\r\n \r\n    constructor(){\r\n        setContractOwner(msg.sender);\r\n    }\r\n \r\n    /// Course has already been purchased!\r\n    error CourseHasOwner();\r\n \r\n    /// Sender is not course owner!\r\n    error SenderIsNotCourseOwner();\r\n \r\n    /// Only owner has an access!\r\n    error OnlyOwner();\r\n\r\n    /// Course has invalid state!\r\n    error InvalidState();\r\n\r\n    /// Course is not created!\r\n    error CourseIsNotCreated();\r\n \r\n    modifier onlyOwner() {\r\n        if(msg.sender != getContractOwner()){\r\n            revert OnlyOwner();\r\n        }\r\n        _;\r\n    }\r\n\r\n    modifier onlyWhenNotStopped {\r\n        require(!isStopped);\r\n        _;\r\n    }\r\n\r\n    modifier onlyWhenStopped {\r\n        require(isStopped);\r\n        _;\r\n    }\r\n\r\n    receive() external payable {}\r\n\r\n    function withdraw(uint amount) external onlyOwner {\r\n       (bool success, ) = owner.call{value: amount}(\"\");\r\n       require(success, \"Transfer failed!\");\r\n    }\r\n\r\n    function emergencyWithdraw() external onlyOwner onlyWhenStopped {\r\n       (bool success, ) = owner.call{value: address(this).balance}(\"\");\r\n       require(success, \"Transfer failed!\");\r\n    }\r\n\r\n    // self dest sends eth to owner address\r\n    function selfDestruct() external onlyOwner onlyWhenStopped {\r\n        selfdestruct(owner);\r\n    }\r\n\r\n    function stopContract() external onlyOwner{\r\n        isStopped = true;\r\n    }\r\n \r\n    function resumeContract() external onlyOwner{\r\n        isStopped = false;\r\n    }\r\n \r\n    //courseHash constructed first when purchaseCourse is called. totalOwnedCourses then is iniatiated starting at index 0. In ownedCourseHash mapping at the index 0 the first courseHash is assigned. In the mapping of ownedCourses, the courseHash is used to map there the courses data (id, price proof, ect). So when you access courseHash, course data is accessed.\r\n    function purchaseCourse(bytes16 courseId, bytes32 proof) external payable onlyWhenNotStopped {\r\n        bytes32 courseHash = keccak256(abi.encodePacked(courseId, msg.sender)); // used in mapping\r\n \r\n        // This error calls if owner tries to purchase same course multiple times\r\n        if(hasCourseOwnership(courseHash)){\r\n            revert CourseHasOwner();\r\n        }\r\n \r\n        uint id = totalOwnedCourses++;\r\n \r\n        ownedCourseHash[id] = courseHash; // returns the courseHash for  specific index of the ownedCourseHash mapping.\r\n \r\n        ownedCourses[courseHash] = Course({ //Creates a Course struct for each courseHash used inside of ownedCourses.\r\n            id: id,\r\n            price: msg.value,\r\n            proof: proof,\r\n            owner: msg.sender,\r\n            state: State.Purchased\r\n        });\r\n    }\r\n\r\n    function repurchaseCourse(bytes32 courseHash) external payable onlyWhenNotStopped {\r\n        if (!isCourseCreated(courseHash)){\r\n            revert CourseIsNotCreated();\r\n        }\r\n\r\n        if (!hasCourseOwnership(courseHash)){\r\n            revert SenderIsNotCourseOwner();\r\n        }\r\n\r\n        Course storage course = ownedCourses[courseHash];\r\n\r\n        if (course.state != State.Deactivated){\r\n            revert InvalidState();\r\n        }\r\n\r\n        course.state = State.Purchased;\r\n        //this reassigns the value\r\n        course.price = msg.value;\r\n\r\n    }\r\n\r\n    function activateCourse(bytes32 courseHash) external onlyOwner onlyWhenNotStopped {\r\n        if (!isCourseCreated(courseHash)){\r\n            revert CourseIsNotCreated();\r\n        }\r\n        //storage updates the changes, memory does not. If we make it here, it means we do have a course and we are getting from storage.\r\n        Course storage course = ownedCourses[courseHash];\r\n\r\n        //Course has to be in purchased state to be able to get activated so if not in purchased state then revert.\r\n        if(course.state != State.Purchased){\r\n            revert InvalidState();\r\n        }\r\n        //if all else goes well, the course state is finally chnged to activated\r\n        course.state = State.Activated;\r\n    }\r\n\r\n    function deactivateCourse(bytes32 courseHash) external onlyOwner onlyWhenNotStopped {\r\n        if (!isCourseCreated(courseHash)){\r\n            revert CourseIsNotCreated();\r\n        }\r\n\r\n        Course storage course = ownedCourses[courseHash];\r\n\r\n        course.state = State.Deactivated;\r\n        course.price = 0;\r\n    }\r\n \r\n    function transferOwnership(address newOwner) external onlyOwner {\r\n        setContractOwner(newOwner);\r\n    }\r\n \r\n    function getCourseCount() external view returns(uint){\r\n        return totalOwnedCourses;\r\n    }\r\n \r\n    // accepts index as param to retreive Course struct\r\n    function getCourseHashAtIndex(uint index) external view returns(bytes32){\r\n        return ownedCourseHash[index];\r\n    }\r\n \r\n    // accepts courseHash as param to retrieve Course struct\r\n    function getCourseByHash(bytes32 courseHash) external view returns(Course memory){\r\n        return ownedCourses[courseHash];\r\n    }\r\n \r\n    function getContractOwner() public view returns(address) {\r\n        return owner;\r\n    }\r\n \r\n    function setContractOwner(address newOwner) private {\r\n        owner = payable(newOwner);       \r\n    }\r\n\r\n    // this is a helper function for activateCourse function\r\n    function isCourseCreated(bytes32 courseHash) private view returns (bool) {\r\n        //If owner is not equal to 0 address then returns true which means course IS created\r\n        return ownedCourses[courseHash].owner != 0x0000000000000000000000000000000000000000;\r\n    }\r\n \r\n    // if course owner is same as msg.sender then it means sender already owns the course so it cannot be repurchased - reverts TX to error.\r\n    function hasCourseOwnership(bytes32 courseHash) private view returns(bool) {\r\n        return ownedCourses[courseHash].owner == msg.sender;\r\n    }\r\n}\r\n",
  "sourcePath": "C:\\Users\\bodiA\\Desktop\\Ashley\\contracts\\CourseMarketplace.sol",
  "compiler": {
    "name": "solc",
    "version": "0.8.4+commit.c7e474f2.Emscripten.clang"
  },
  "schemaVersion": "3.4.3",
  "updatedAt": "2022-08-07T14:43:45.723Z",
  "networkType": "ethereum",
  "devdoc": {
    "kind": "dev",
    "methods": {},
    "version": 1
  },
  "userdoc": {
    "errors": {
      "CourseHasOwner()": [
        {
          "notice": "Course has already been purchased!"
        }
      ],
      "CourseIsNotCreated()": [
        {
          "notice": "Course is not created!"
        }
      ],
      "InvalidState()": [
        {
          "notice": "Course has invalid state!"
        }
      ],
      "OnlyOwner()": [
        {
          "notice": "Only owner has an access!"
        }
      ],
      "SenderIsNotCourseOwner()": [
        {
          "notice": "Sender is not course owner!"
        }
      ]
    },
    "kind": "user",
    "methods": {},
    "version": 1
  }
}